:100000000C943E000C945B000C945B000C945B0021
:100010000C945B000C945B000C945B000C945B00F4
:100020000C945B000C945B000C945B000C945B00E4
:100030000C945B000C945D000C945B000C945B00D2
:100040000C945B000C945B000C945B000C945B00C4
:100050000C945B000C945B000C945B000C945B00B4
:100060000C945B000C945B000C945B000C945B00A4
:100070000C945B000C945B000C945B0011241FBE7D
:10008000CFEFD0E1DEBFCDBF11E0A0E0B1E0ECE802
:10009000F3E002C005900D92A230B107D9F724E039
:1000A000A2E0B1E001C01D92AD38B207E1F70E94B5
:1000B000A5010C94C4010C9400000F930FB70F938B
:1000C00000918400003141F00F3039F00E3031F0F2
:1000D0000D3029F00C3021F000000000000000007D
:1000E0001F935898DF93CF93D0910501C0918A0454
:1000F0000FEFC0130C94E6002F933F93EF93FF9301
:10010000F49B3DC000910401109100012091030176
:1001100030910201011731F00000000000000000E2
:10012000000016C000272395231709F011C0000016
:1001300000000000000000000000000000000000BF
:10014000000000270093B0000093B100F49839C07C
:10015000003041F00000000000000000000000003E
:10016000000007C0EBE8F4E0E20FF01F30813093AD
:10017000B3000395209303010093040122C0000003
:10018000000000000000000000000000000000006F
:10019000000000000000000000000000000000005F
:1001A000000000000000000000000000000000004F
:1001B000000000000000000000000000000000003F
:1001C0000000FF91EF913F912F9136C00000000099
:1001D000000000000000000000000000000000001F
:1001E000000000000000000000000000000000000F
:1001F00000000000000000000000000000000000FF
:1002000000000000000000000000000000000000EE
:1002100000000000000000000000000000000000DE
:1002200000000000000000000000000000000000CE
:100230000000000000000000229718F00000599A0A
:1002400003C0599800000000229610E0C3321D0739
:1002500011F0000001C0F09A11E0CF391D0721F024
:1002600000000000000002C0F098F39A0000589AC5
:1002700011E0C83A1D0729F0000000000000219697
:1002800006C01EB312FB11F91EBBCC27DD271BB124
:100290001F9308B10F9305B10F9302B10F931C6B1D
:1002A0001BB900E007B91FEF18B915B91BB11F7DC5
:1002B0001BB906B50ABD589B30C010621BB90FEFC1
:1002C00007B908B900E001B902B9F199177F1BB964
:1002D0000C2F0695D13009F4006805B900E008B983
:1002E0001B7E1BB9039508B9039508B914611BB9A6
:1002F0000FEF01B90F9102B90F9105B90F9108B92C
:100300000F910BB9C0938A04D0930501CF91DF916F
:100310001F910F910FBF0F91189510621BB90FEF2E
:1003200007B908B90F9102B90F9105B90F9108B932
:100330000F910BB9C0938A04D0930501CF91DF913F
:100340001F910F910FBF0F9118958FEF8AB98BB93D
:1003500081B99EE092B987B99AEA98B984B985E5DE
:1003600085B95C9824E530EA8CEF91E0215030406B
:1003700080409040D9F700C000C000005C9A11B8DE
:0C03800012B85A985C98FFCFF894FFCF99
:02038C003C0033
:00000001FF
