S00F0000666166626F78312E737265636E
S11300000C947E000C949B000C949B000C949B001D
S11300100C949B000C949B000C949B000C949B00F0
S11300200C949B000C949B000C949B000C949B00E0
S11300300C949B000C949D000C949B000C949B00CE
S11300400C949B000C949B000C949B000C949B00C0
S11300500C949B000C949B000C949B000C949B00B0
S11300600C949B000C949B000C949B000C949B00A0
S11300700C949B000C949B000C949B0000000000CB
S1130080000000000000FFFFFFFF000000FFFFFF73
S1130090FFFFFF00FFFFFFFFFFFFFFFFFFFFFFFF6B
S11300A0FFFFFFFF00FFFFFFFFFFFF000000FFFF58
S11300B0FFFF00000000000000000000000000003E
S11300C0000000000000000000000000000000002C
S11300D0000000000000000000000000000000001C
S11300E0000000000000000000000000000000000C
S11300F000000000000000000000000011241FBEEA
S1130100CFEFD0E1DEBFCDBF11E0A0E0B1E0E8EE7B
S1130110F9E002C005900D92A030B107D9F724E0B0
S1130120A0E0B1E001C01D92A83AB207E1F70E9435
S1130130F8020C94F2040C9400000F930FB70F9381
S113014000918400003141F00F3039F00E3031F06D
S11301500D3029F00C3021F00000000000000000F8
S113016028981F93CF93DF93C0912301D09122014C
S113017011E0CB3E1D0711F0000001C0299811E0E9
S1130180CD3E1D0711F0000001C0299A12E0CC30C9
S11301901D0721F000000000000003C0F09ACC27E6
S11301A0DD2711E0C03E1D0721F000000000000023
S11301B002C0F098F29A00000000289AF09B0CC24A
S11301C008B10F9302B10F9301B10F930BB10F93C9
S11301D005B10F930F67F1990F7D05B900E008B9D8
S11301E007B90FEF01B90C2F0695D13009F4006857
S11301F00695000F0BB900E002B905B1077E05B9F9
S113020001E002B9039502B9039502B9039502B955
S1130210039502B9039502B9039502B9039502B98E
S1130220039502B9039502B9039502B9039502B97E
S1130230039502B9039502B9039502B9039502B96E
S1130240039502B9039502B9039502B9039502B95E
S11305B0039502B9039502B9039502B92C9A2B9AB3
S11305C00F9105B90F910BB90F9101B90F9102B9B0
S11305D00F9108B90FEF07B92196C0932301D09367
S11305E02201DF91CF911F910F910FBF0F911895A9
S11305F00E944C03D0E00CC04C2F6D2F8CEB90E08C
S11306000E94BA03CF5FCF30B9F7DF5FDE3111F05C
S1130610C0E0F2CF20E140E16CE770E080E00E94AE
S1130620CE030E94AC030E945803789401E011E0C9
S1130630D0E1C0E1009B2DC0C83E38F4113011F464
S1130640CF5F06C0CC2321F002C0111101C0C150FC
S1130650D03738F4013011F4DF5F06C0DD2321F018
S113066002C0011101C0D150CC2319F0C83E21F4BD
S113067002C011E001C010E0DD2319F0D03721F4ED
S113068002C001E001C000E04D2F6C2F80E00E9409
S1130690DE030E94B403CECF11B88FEF82B98AB9BA
S11306A01BB887B918B884B98FE185B9F19A089550
S11306B01092800089E08093810082E08093890019
S11306C09CE79093880080936F00089525B12C6572
S11306D025B92FEF21B950E0252F240F220F2BB974
S11306E09C0170E0E72FE60FE2B9F9012F5F3F4F5D
S11306F0E491EE2319F0E8B92A982A9A7F5F7830BA
S113070089F708965F5F583039F711B88FEF82B9CF
S11307102E98089525B12C6525B92FEF21B950E005
S1130720252F240F220F2BB99C0170E0E72FE60F31
S1130730E2B9F9012F5F3F4FE491E8B92A982A9A68
S11307407F5F783099F708965F5F583049F711B8A2
S11307508FEF82B92E980895F19B03C0F1982D9ADA
S11307600895F19A2D9808950E94AC03F29BFECF50
S1130770F29808952EE1429FF0011124E60FF11D35
S1130780EE0FFF1FEC5DFE4F91838083440F440FF7
S1130790440F660F660F660F0C948A0394E0899FDA
S11307A0F0011124EF5FFE4F718360834283238342
S11307B0809100018F5F809300010895DF92EF9292
S11307C0FF920F931F93CF93DF93E62EF42E94E0C2
S11307D0899FE0011124FE01EF5FFE4FA281A61361
S11307E004C08381841709F4F5C08A2F877009F443
S11307F041C08E010F5F1E4FF80183818695869557
S11308008695A695A695A695B0E01196482F440F17
S1130810440F440F6A2F660F660F660F9EE1D92EB0
S1130820D89EA00DB11D1124AA0FBB1FAC5DBE4FF5
S11308308D919C910E948A03F801938196959695D7
S113084096958281869586958695492F440F440F07
S1130850440F682F660F660F660FD99EF0011124AE
S1130860E80FF11DEE0FFF1FEC5DFE4F80819181BB
S11308700E948A03FE01EF5FFE4F8281982F9770DA
S113088039F12381922F977019F126952695269593
S113089030E02F5F3F4F86958695869590E00196D0
S11308A0422F440F440F440F682F660F660F660FE4
S11308B05EE1529FF001539FF00D1124E80FF91FE0
S11308C0EE0FFF1FEC5DFE4F808191810E948A0331
S11308D08E010F5F1E4FF8018381982F977009F4E2
S11308E040C086958695869590E00196228126954E
S11308F026952695482F440F440F440F622F660F08
S1130900660F660F3EE1D32ED89ED001D99EB00D5E
S11309101124A20FB11DAA0FBB1FAC5DBE4F8D9158
S11309209C910E948A03F8019381969596959695D9
S11309308281869586958695492F440F440F440FEE
S1130940682F660F660F660FD99EF0011124E80F19
S1130950F11DEE0FFF1FEC5DFE4F808191810E941F
S11309608A03CF5FDE4FEA82FB82F12C8E010E5F99
S11309701F4F23962BC0F801208130E084E0F89EBD
S1130980F0011124EF5FFE4F6281862F90E0A901F0
S11309904750510984179507C4F0295F3F4F281722
S11309A039079CF0288130E04381842F90E0D901FD
S11309B017978A179B074CF0295F3F4F2817390771
S11309C024F0808191810E946603F3948091000158
S11309D0F81688F2DF91CF911F910F91FF90EF905D
S10B09E0DF900895F894FFCFA5
S9030000FC
