:100000000C948E000C94AB000C94AB000C94AB00E1
:100010000C94AB000C94AB000C94AB000C94AB00B4
:100020000C94AB000C94AB000C94AB000C94AB00A4
:100030000C94AB000C94AD000C94AB000C94AB0092
:100040000C94AB000C94AB000C94AB000C94AB0084
:100050000C94AB000C94AB000C94AB000C94AB0074
:100060000C94AB000C94AB000C94AB000C94AB0064
:100070000C94AB000C94AB000C94AB001C1C1C1C2F
:100080001C1C1C1C1C1C1C1C1C1C1C1C1C1C1C1CB0
:100090001C1C1C1C1C1C1C1C1C1C1C1C0000000010
:1000A0000000000000000000000000000000000050
:1000B000000000000000000000000000FFFFFFFF44
:1000C000FFFFFFFFFFFFFFFFFFFFFFFFFFFFFFFF40
:1000D000FFFFFFFFFFFFFFFFFFFFFFFF000000002C
:1000E0000000000000000000000000000000000010
:1000F0000000000000000000000000000000000000
:1001000000000000000000000000000000000000EF
:1001100000000000000000000000000011241FBECD
:10012000CFEFD0E1DEBFCDBF11E0A0E0B1E0E4E071
:10013000FEE002C005900D92AA30B107D9F728E081
:10014000AAE0B1E001C01D92A831B207E1F70E9418
:1001500028030C9400070C9400000F930FB70F9323
:1001600000918400003141F00F3039F00E3031F051
:100170000D3029F00C3021F00000000000000000DC
:1001800058981F93CF93DF93C0919304D09192041A
:1001900011E0CB3E1D0711F0000001C0599811E09D
:1001A000CD3E1D0711F0000001C0599A12E0CC307D
:1001B0001D0721F000000000000003C0F09ACC27CA
:1001C000DD2711E0C03E1D0721F000000000000007
:1001D00002C0F098F29A00000000589AF09B0CC2FE
:1001E00008B10F9302B10F9301B10F9305B10F93B3
:1001F0000BB10F930F67F1990F7D0BB900E008B9B0
:1002000007B90FEF01B90C2F0695D13009F400683A
:100210000695000F05B900E002B90BB1077E0BB9D6
:1002200001E002B9039502B9039502B9039502B939
:10023000039502B9039502B9039502B9039502B972
:10024000039502B9039502B9039502B9039502B962
:10025000039502B9039502B9039502B9039502B952
:10026000039502B9039502B9039502B9039502B942
:1005D000039502B9039502B9039502B95C9A5B9A37
:1005E0000F910BB90F9105B90F9101B90F9102B994
:1005F0000F9108B90FEF07B92196C0939304D093D8
:100600009204DF91CF911F910F910FBF0F91189519
:1006100020B130E002C0359527958A95E2F7822F08
:1006200080958170089511B88FEF82B984B915B89B
:1006300087B918B88AB98FE18BB982E88093B00086
:1006400086E08093B10085E98093B300F19A089524
:100650000E941303C0E00CC04D2F6C2F8CED90E076
:100660000E94C406DF5FDF30B9F7CF5FCE3111F0F3
:10067000D0E0F2CFA091080180910901CA9FD0017A
:100680001124A80FB11DA35FBE4F809101018C936F
:10069000A091060180910701CA9FD0011124A80FE3
:1006A000B11DA35FBE4F809100018C93E0910401C6
:1006B00080910501CE9FF0011124E80FF11DE35F49
:1006C000FE4F8FEF80830091080120910901000FF8
:1006D000000F220F220F220F44E068E08CEB90E025
:1006E0000E9463060091060120910701000F000F90
:1006F000220F220F220F44E068E08CEB90E00E9472
:1007000063060091040120910501000F000F220FE4
:10071000220F220F44E068E08CE790E00E9463061D
:100720000E94550678941EE1EE24EA94F12CCEE165
:10073000D0E080910B018111B5C2809103018F5FE0
:1007400080930301877009F094C2E09106018091C3
:1007500007011E9FF0011124E80FF11DE35FFE4F1A
:10076000108280910201882309F49DC02091080124
:100770008091090190E00196BE010E94D806129F67
:10078000800D911D1124835F9E4FFC018081882381
:10079000A1F0209108018091090190E00196BE012D
:1007A0000E94D806129F800D911D1124835F9E4FD9
:1007B000FC0180818F3F09F0A5C020910801809144
:1007C000090190E00196BE010E94D806129F800D9B
:1007D000911D1124835F9E4FFC0140814F3FC9F55D
:1007E00081E080930A01E09108018091090190E085
:1007F0000B96BE010E94D8069C018E2F90E00A96AF
:10080000BE010E94D806189FF001199FF00D112417
:10081000E20FF31FE35FFE4F4083809108012091B8
:10082000090190E00A96BE010E94D806082F000F29
:10083000000F822F90E00B96BE010E94D806282F51
:10084000220F220F220F44E068E08CE790E00E9424
:1008500063068091010190E00196B7010E94D806DD
:10086000009709F001C081E0809301012091080107
:100870008091090190E00196BE010E94D806129F66
:10088000800D911D1124835F9E4F20910101FC0179
:1008900020838091090190E00196BE010E94D80654
:1008A00080930901ACC080910C01882309F4B6C083
:1008B000809108012091090190E00196BE010E94FB
:1008C000D806189FF001199FF00D1124E20FF11DB9
:1008D000E35FFE4F80818823C9F080910801209159
:1008E000090190E00196BE010E94D806189FF00110
:1008F000199FF00D1124E20FF11DE35FFE4F80817F
:100900008F3F21F081E080930B0113CF809108018C
:100910002091090190E00196BE010E94D806189F1F
:10092000F001199FF00D1124E20FF11DE35FFE4F5E
:1009300040814F3FC9F581E080930A01E0910801B1
:100940008091090190E00A96BE010E94D8069C01A0
:100950008E2F90E00B96BE010E94D806189FF001E2
:10096000199FF00D1124E20FF31FE35FFE4F408348
:10097000809108012091090190E00B96BE010E9430
:10098000D806082F000F000F822F90E00A96BE01B4
:100990000E94D806282F220F220F220F44E068E081
:1009A0008CE790E00E9463068091010190E001963F
:1009B000B7010E94D806009709F001C081E080933A
:1009C0000101809108012091090190E00196BE018A
:1009D0000E94D806189FF001199FF00D1124E20F14
:1009E000F11DE35FFE4F809101018083809108013A
:1009F00090E00196BE010E94D80680930801009104
:100A0000080120910901000F000F220F220F220F71
:100A100044E068E08CEB90E00E94630680910A015C
:100A2000811125C1E0910601809107011E9FF0010F
:100A30001124E80FF11DE35FFE4F108200910601C3
:100A400020910701000F000F220F220F220F44E018
:100A500068E08CE990E00E9463068091000190E0DC
:100A60000196B7010E94D806009709F001C081E005
:100A700080930001809106013091070120910001CF
:100A800090E00196BE010E94D806189FF001199FC0
:100A9000F00D1124E30FF11DE35FFE4F80818213FF
:100AA00005C08091060190E001962DC030910601AD
:100AB0008091070190E00196BE010E94D806139F25
:100AC000800D911D1124835F9E4FFC018081821354
:100AD00001C0C4C0809106013091070190E00197E8
:100AE000BE010E94D806189FF001199FF00D112435
:100AF000E30FF11DE35FFE4F808182130AC08091F6
:100B0000060190E00197BE010E94D806809306017D
:100B1000AEC0309106018091070190E00197BE01BF
:100B20000E94D806139F800D911D1124835F9E4F54
:100B3000FC018081821301C067C030910601809161
:100B4000070190E00196BE010E94D8066C01832F38
:100B500090E00196BE010E94D806189FF001199FEF
:100B6000F00D1124EC0DFD1DE35FFE4F808182131B
:100B700005C08091060190E001966BC0309106019E
:100B80008091070190E00197BE010E94D8066C0198
:100B9000832F90E00197BE010E94D806189FF001B4
:100BA000199FF00D1124EC0DFD1DE35FFE4F8081B8
:100BB000821305C08091060190E0019720C030911A
:100BC00006018091070190E00197BE010E94D806BE
:100BD0006C01832F90E00196BE010E94D806189FF9
:100BE000F001199FF00D1124EC0DFD1DE35FFE4F88
:100BF000808182130EC08091060190E00196BE01B3
:100C00000E94D806809306018091070190E0019729
:100C100029C0309106018091070190E00196BE0144
:100C20000E94D8066C01832F90E00197BE010E94BC
:100C3000D806189FF001199FF00D1124EC0DFD1D31
:100C4000E35FFE4F8081821312C08091060190E025
:100C50000197BE010E94D80680930601809107018A
:100C600090E00196BE010E94D80680930701109281
:100C70000A0180E00E940803882329F081E0809324
:100C8000020110920C0181E00E940803882329F0E0
:100C90001092020181E080930C018091B3008F5F7C
:100CA0008093B3000E94BE0644CD1092800089E07C
:100CB0008093810082E0809389009CE79093880074
:100CC00080936F0008950F931F93CF93DF933BB1F1
:100CD0003C653BB93FEF31B930E0C62FD0E019C0D9
:100CE000532F500F550F55B9DC01582F122F181BD9
:100CF00008C0710F72B9FD011196E491E8B95A98D4
:100D00005A9A7A2FEA2FE51BE61798F38C0F9D1F4E
:100D10003F5F3413E5CF11B88FEF82B95E98DF9152
:100D2000CF911F910F9108952BB12C652BB92FEF07
:100D300021B950E0252F240F220F25B99C0170E026
:100D4000E72FE60FE2B9F9012F5F3F4FE491E8B9D1
:100D50005A985A9A7F5F783099F708965F5F5830B3
:100D600049F711B88FEF82B95E980895F19B03C0DF
:100D7000F1985D9A0895F19A5D9808950E94B606DB
:100D8000F29BFECFF29808952EE1429FF0011124CC
:100D9000E60FF11DEE0FFF1FEC56FB4F9183808392
:100DA000440F440F440F660F660F660F0C949406B1
:100DB00097FB072E16F4009407D077FD09D00E9408
:100DC000EC0607FC05D03EF4909581959F4F089561
:100DD000709561957F4F0895AA1BBB1B51E107C019
:100DE000AA1FBB1FA617B70710F0A61BB70B881FBB
:100DF000991F5A95A9F780959095BC01CD0108954A
:040E0000F894FFCF94
:0A0E0400010201010F010A0E0A0F9E
:00000001FF
