:100000000C948E000C94AB000C94AB000C94AB00E1
:100010000C94AB000C94AB000C94AB000C94AB00B4
:100020000C94AB000C94AB000C94AB000C94AB00A4
:100030000C94AB000C94AD000C94AB000C94AB0092
:100040000C94AB000C94AB000C94AB000C94AB0084
:100050000C94AB000C94AB000C94AB000C94AB0074
:100060000C94AB000C94AB000C94AB000C94AB0064
:100070000C94AB000C94AB000C94AB001C1C1C1C2F
:100080001C1C1C1C1C1C1C1C1C1C1C1C1C1C1C1CB0
:100090001C1C1C1C1C1C1C1C1C1C1C1C0000000010
:1000A0000000000000000000000000000000000050
:1000B000000000000000000000000000FFFFFFFF44
:1000C000FFFFFFFFFFFFFFFFFFFFFFFFFFFFFFFF40
:1000D000FFFFFFFFFFFFFFFFFFFFFFFF000000002C
:1000E0000000000000000000000000000000000010
:1000F0000000000000000000000000000000000000
:1001000000000000000000000000000000000000EF
:1001100000000000000000000000000011241FBECD
:10012000CFEFD0E1DEBFCDBF11E0A0E0B1E0ECEE5B
:10013000FDE002C005900D92AA30B107D9F728E082
:10014000AAE0B1E001C01D92A831B207E1F70E9418
:1001500013030C94F4060C9400000F930FB70F9345
:1001600000918400003141F00F3039F00E3031F051
:100170000D3029F00C3021F00000000000000000DC
:1001800028981F93CF93DF93C0919304D09192044A
:1001900011E0CB3E1D0711F0000001C0299811E0CD
:1001A000CD3E1D0711F0000001C0299A12E0CC30AD
:1001B0001D0721F000000000000003C0F09ACC27CA
:1001C000DD2711E0C03E1D0721F000000000000007
:1001D00002C0F098F29A00000000289AF09B0CC22E
:1001E00008B10F9302B10F9301B10F930BB10F93AD
:1001F00005B10F930F67F1990F7D05B900E008B9BC
:1002000007B90FEF01B90C2F0695D13009F400683A
:100210000695000F0BB900E002B905B1077E05B9DC
:1002200001E002B9039502B9039502B9039502B939
:10023000039502B9039502B9039502B9039502B972
:10024000039502B9039502B9039502B9039502B962
:10025000039502B9039502B9039502B9039502B952
:10026000039502B9039502B9039502B9039502B942
:1005D000039502B9039502B9039502B92C9A2B9A97
:1005E0000F9105B90F910BB90F9101B90F9102B994
:1005F0000F9108B90FEF07B92196C0939304D093D8
:100600009204DF91CF911F910F910FBF0F91189519
:1006100020B130E002C0359527958A95E2F7822F08
:100620008095817008950E943D06C0E00CC04D2F5A
:100630006C2F8CED90E00E94B806DF5FDF30B9F7D9
:10064000CF5FCE3111F0D0E0F2CFA09108018091C0
:100650000901CA9FD0011124A80FB11DA35FBE4F8D
:10066000809101018C93A091060180910701CA9F9E
:10067000D0011124A80FB11DA35FBE4F80910001CE
:100680008C93E091040180910501CE9FF00111242B
:10069000E80FF11DE35FFE4F8FEF808300910801AB
:1006A00020910901000F000F220F220F220F44E0BA
:1006B00068E08CEB90E00E945706009106012091C3
:1006C0000701000F000F220F220F220F44E068E005
:1006D0008CEB90E00E9457060091040120910501E7
:1006E000000F000F220F220F220F44E068E08CE77A
:1006F00090E00E9457060E94490678941EE1EE247D
:10070000EA94F12CCEE1D0E080910B01882319F01E
:100710000E94B206F9CF809103018F5F809303019D
:10072000877009F094C2E0910601809107011E9F35
:10073000F0011124E80FF11DE35FFE4F108280915C
:100740000201882309F49DC02091080180910901CC
:1007500090E00196BE010E94CC06129F800D911D73
:100760001124835F9E4FFC0180818823A1F020919A
:1007700008018091090190E00196BE010E94CC061B
:10078000129F800D911D1124835F9E4FFC0180817B
:100790008F3F09F0A5C0209108018091090190E0E8
:1007A0000196BE010E94CC06129F800D911D11245E
:1007B000835F9E4FFC0140814F3FC9F581E08093EC
:1007C0000A01E09108018091090190E00B96BE01B9
:1007D0000E94CC069C018E2F90E00A96BE010E94DA
:1007E000CC06189FF001199FF00D1124E20FF31FA2
:1007F000E35FFE4F4083809108012091090190E062
:100800000A96BE010E94CC06082F000F000F822F0F
:1008100090E00B96BE010E94CC06282F220F220FDB
:10082000220F44E068E08CE790E00E945706809138
:10083000010190E00196B7010E94CC06009709F0F3
:1008400001C081E08093010120910801809109019C
:1008500090E00196BE010E94CC06129F800D911D72
:100860001124835F9E4F20910101FC012083809120
:10087000090190E00196BE010E94CC068093090117
:10088000ACC080910C01882309F4B6C080910801A6
:100890002091090190E00196BE010E94CC06189FAC
:1008A000F001199FF00D1124E20FF11DE35FFE4FDF
:1008B00080818823C9F0809108012091090190E08E
:1008C0000196BE010E94CC06189FF001199FF00D01
:1008D0001124E20FF11DE35FFE4F80818F3F21F075
:1008E00081E080930B0110CF8091080120910901D4
:1008F00090E00196BE010E94CC06189FF001199F5E
:10090000F00D1124E20FF11DE35FFE4F40814F3FD8
:10091000C9F581E080930A01E09108018091090105
:1009200090E00A96BE010E94CC069C018E2F90E0BA
:100930000B96BE010E94CC06189FF001199FF00D86
:100940001124E20FF31FE35FFE4F40838091080103
:100950002091090190E00B96BE010E94CC06082F61
:10096000000F000F822F90E00A96BE010E94CC0675
:10097000282F220F220F220F44E068E08CE790E03E
:100980000E9457068091010190E00196B7010E94F4
:10099000CC06009709F001C081E0809301018091AD
:1009A00008012091090190E00196BE010E94CC0649
:1009B000189FF001199FF00D1124E20FF11DE35F64
:1009C000FE4F8091010180838091080190E00196A3
:1009D000BE010E94CC06809308010091080120917D
:1009E0000901000F000F220F220F220F44E068E0E0
:1009F0008CEB90E00E94570680910A01811125C17D
:100A0000E0910601809107011E9FF0011124E80F7B
:100A1000F11DE35FFE4F1082009106012091070156
:100A2000000F000F220F220F220F44E068E08CE934
:100A300090E00E9457068091000190E00196B70176
:100A40000E94CC06009709F001C081E0809300016C
:100A500080910601309107012091000190E00196FC
:100A6000BE010E94CC06189FF001199FF00D1124C1
:100A7000E30FF11DE35FFE4F8081821305C080917B
:100A8000060190E001962DC030910601809107018A
:100A900090E00196BE010E94CC06139F800D911D2F
:100AA0001124835F9E4FFC018081821301C0C4C06A
:100AB000809106013091070190E00197BE010E94EC
:100AC000CC06189FF001199FF00D1124E30FF11DC2
:100AD000E35FFE4F808182130AC08091060190E09F
:100AE0000197BE010E94CC0680930601AEC03091F2
:100AF00006018091070190E00197BE010E94CC069B
:100B0000139F800D911D1124835F9E4FFC018081F6
:100B1000821301C067C0309106018091070190E007
:100B20000196BE010E94CC066C01832F90E00196D5
:100B3000BE010E94CC06189FF001199FF00D1124F0
:100B4000EC0DFD1DE35FFE4F8081821305C0809197
:100B5000060190E001966BC030910601809107017B
:100B600090E00197BE010E94CC066C01832F90E0BB
:100B70000197BE010E94CC06189FF001199FF00D4D
:100B80001124EC0DFD1DE35FFE4F8081821305C033
:100B90008091060190E0019720C03091060180917C
:100BA000070190E00197BE010E94CC066C01832FE3
:100BB00090E00196BE010E94CC06189FF001199F9B
:100BC000F00D1124EC0DFD1DE35FFE4F80818213BB
:100BD0000EC08091060190E00196BE010E94CC06F5
:100BE000809306018091070190E0019729C0309120
:100BF00006018091070190E00196BE010E94CC069B
:100C00006C01832F90E00197BE010E94CC06189FD3
:100C1000F001199FF00D1124EC0DFD1DE35FFE4F57
:100C20008081821312C08091060190E00197BE017D
:100C30000E94CC06809306018091070190E0019606
:100C4000BE010E94CC068093070110920A0180E049
:100C50000E940803882329F081E08093020110920A
:100C60000C0181E00E940803882309F451CD109201
:100C7000020181E080930C014BCD11B88FEF82B956
:100C80008AB91BB887B918B884B98FE185B9F19AC8
:100C900008951092800089E08093810082E0809323
:100CA00089009CE79093880080936F0008950F93CC
:100CB0001F93CF93DF9335B13C6535B93FEF31B921
:100CC00030E0C62FD0E019C0532F500F550F5BB93D
:100CD000DC01582F122F181B08C0710F72B9FD01CB
:100CE0001196E491E8B92A982A9A7A2FEA2FE51BFF
:100CF000E61798F38C0F9D1F3F5F3413E5CF11B8B3
:100D00008FEF82B92E98DF91CF911F910F910895A7
:100D100025B12C6525B92FEF21B950E0252F240FDF
:100D2000220F2BB99C0170E0E72FE60FE2B9F90121
:100D30002F5F3F4FE491E8B92A982A9A7F5F783075
:100D400099F708965F5F583049F711B88FEF82B96D
:100D50002E980895F19B03C0F1982D9A0895F19A69
:100D60002D9808950E94AA06F29BFECFF29808954E
:100D70002EE1429FF0011124E60FF11DEE0FFF1F3F
:100D8000EC56FB4F91838083440F440F440F660F52
:100D9000660F660F0C94880697FB072E16F40094D6
:100DA00007D077FD09D00E94E00607FC05D03EF48D
:100DB000909581959F4F0895709561957F4F089507
:100DC000AA1BBB1B51E107C0AA1FBB1FA617B70771
:100DD00010F0A61BB70B881F991F5A95A9F780958D
:0C0DE0009095BC01CD010895F894FFCF60
:0A0DEC00010201010F010A0E0A0FB7
:00000001FF
