S00F0000666166626F78322E737265636D
S11300000C943E000C945B000C945B000C945B001D
S11300100C945B000C945B000C945B000C945B00F0
S11300200C945B000C945B000C945B000C945B00E0
S11300300C945B000C945D000C945B000C945B00CE
S11300400C945B000C945B000C945B000C945B00C0
S11300500C945B000C945B000C945B000C945B00B0
S11300600C945B000C945B000C945B000C945B00A0
S11300700C945B000C945B000C945B0011241FBE79
S1130080CFEFD0E1DEBFCDBF11E0A0E0B1E0E2EE02
S1130090F2E002C005900D92A230B107D9F724E036
S11300A0A2E0B1E001C01D92AD38B207E1F70E94B1
S11300B069010C946F010C9400000F930FB70F9318
S11300C000918400003141F00F3039F00E3031F0EE
S11300D00D3029F00C3021F0000000000000000079
S11300E058981F93DF93CF93D0910501C0918A0450
S11300F00FEFC0130C94C3002F933F93EF93FF9320
S1130100F49B3BC000910401109100012091030174
S113011030910201011739F00000000000000000D6
S11301200000000014C000272395231709F00FC016
S113013000000000000000000000000000000000BB
S113014000270093B0000093B100F49817C000306A
S113015039F000000000000000000000000007C0AB
S1130160EBE8F4E0E20FF01F30813093B300039525
S1130170209303010093040101C00000FF91EF915B
S11301803F912F9101C00000229718F00000599A66
S113019003C0599800000000229610E0C3321D07E6
S11301A011F0000001C0F09A11E0CF391D0721F0D1
S11301B000000000000002C0F098F39A0000589A72
S11301C011E0C83A1D0729F0000000000000219644
S11301D006C01EB312FB11F91EBBCC27DD271BB1D1
S11301E01F9308B10F9305B10F9302B10F931C6BCA
S11301F01BB900E007B91FEF18B915B91BB11F7D72
S11302001BB906B50ABD589B30C010621BB90FEF6D
S113021007B908B900E001B902B9F199177F1BB910
S11302200C2F0695D13009F4006805B900E008B92F
S11302301B7E1BB9039508B9039508B914611BB952
S11302400FEF01B90F9102B90F9105B90F9108B9D8
S11302500F910BB9C0938A04D0930501CF91DF911C
S11302601F910F910FBF0F91189510621BB90FEFDB
S113027007B908B90F9102B90F9105B90F9108B9DF
S11302800F910BB9C0938A04D0930501CF91DF91EC
S11302901F910F910FBF0F9118958FEF8AB99FEBA4
S11302A09BB987B918B884B915B881B912B81EBA00
S11302B08ABD08951092800089E08093810083E0D4
S11302C08093890080E28093880082E080936F00AD
S11302D008950E944D010E945A017894FFCFF8942A
S10502E0FFCF4A
S10502E23C00DA
S9030000FC
