:100000000C943E000C945B000C945B000C945B0021
:100010000C945B000C945B000C945B000C945B00F4
:100020000C945B000C945B000C945B000C945B00E4
:100030000C945B000C945D000C945B000C945B00D2
:100040000C945B000C945B000C945B000C945B00C4
:100050000C945B000C945B000C945B000C945B00B4
:100060000C945B000C945B000C945B000C945B00A4
:100070000C945B000C945B000C945B0011241FBE7D
:10008000CFEFD0E1DEBFCDBF11E0A0E0B1E0ECEFFB
:10009000F6E002C005900D92A230B107D9F724E036
:1000A000A2E0B1E001C01D92AE38B207E1F70E94B4
:1000B00057030C947C030C9400000F930FB70F931D
:1000C00000918400003141F00F3039F00E3031F0F2
:1000D0000D3029F00C3021F000000000000000007D
:1000E0001F935898DF93CF93D0910501C0918A0454
:1000F0000FEFC0130C94E6002F933F93EF93FF9301
:10010000F49B3DC000910401109100012091030176
:1001100030910201011731F00000000000000000E2
:10012000000016C000272395231709F011C0000016
:1001300000000000000000000000000000000000BF
:10014000000000270093B0000093B100F49839C07C
:10015000003041F00000000000000000000000003E
:10016000000007C0ECE8F4E0E20FF01F30813093AC
:10017000B3000395209303010093040122C0000003
:10018000000000000000000000000000000000006F
:10019000000000000000000000000000000000005F
:1001A000000000000000000000000000000000004F
:1001B000000000000000000000000000000000003F
:1001C0000000FF91EF913F912F9136C00000000099
:1001D000000000000000000000000000000000001F
:1001E000000000000000000000000000000000000F
:1001F00000000000000000000000000000000000FF
:1002000000000000000000000000000000000000EE
:1002100000000000000000000000000000000000DE
:1002200000000000000000000000000000000000CE
:1002300000000000000000000091B300069500934C
:10024000B400229718F00000599A03C05998000092
:100250000000229610E0C3321D0711F0000001C01B
:10026000F09A0000AF93BF93589A12E0C3301D0775
:1002700021F000000000000002C0F098F39A12E0A4
:10028000CC301D0729F0000000000000219606C0B8
:100290001EB312FB11F91EBBCC27DD271BB11F9328
:1002A00008B10F9305B10F9302B10F931C6B1BB9EB
:1002B00000E007B91FEF18B915B91BB11F7D1BB9B5
:1002C00006B50ABDF09B59C110621BB90FEF07B903
:1002D00008B900E001B9F19B1F7E1BB9AC2FBD2FFF
:1002E0009497A695B13009F4A068A5B900E008B9C3
:1002F0001B7F1BB9039508B9039508B9039508B985
:10030000039508B9039508B9039508B9039508B989
:10031000039508B9039508B9039508B9039508B979
:10032000039508B9039508B9039508B9039508B969
:10033000039508B9039508B9039508B9039508B959
:10054000039508B9039508B914601BB90FEF01B9F9
:100550000F9102B90F9105B90F9108B90F910BB91D
:10056000C0938A04D0930501CF91DF911F91BF9171
:10057000AF910F910FBF0F91189510621BB90FEF3C
:1005800007B908B90FEFC0130C94CB0200918B048C
:10059000039500938B040F9102B90F9105B90F9148
:1005A00008B90F910BB9C0938A04D0930501CF917C
:1005B000DF911F91BF91AF910F910FBF0F911895D0
:1005C00020E030E040E043954F3FE9F733953F3F6F
:1005D000C9F723952F3FA9F708958FEF8AB99FEBAD
:1005E0009BB987B918B884B992E095B981B912B8A6
:1005F0001EBA8ABD08951092800089E08093810020
:1006000083E0809389008FE18093880082E080936B
:100610006F0008958BB18C6A8BB92FEE47EA89E998
:10062000215040408040E1F700C000009FEE27EAE3
:1006300049E9915020404040E1F700C0000020E02F
:1006400030E0A0E0F0E0ECE17FEF60EE53E025B9B0
:100650008A2F9F2F8038910540F42837310510F0FC
:10066000452F01C0462F42B907C02837310510F089
:10067000472F01C04E2F42B988B95B980000000097
:10068000000000005B9A0196811541E0940711F784
:100690002F5F3F4F203F3105D1F68FEE97EA29E9D2
:1006A000815090402040E1F700C0000008952FEEF7
:1006B00087EA99E9215080409040E1F700C00000AE
:1006C0000E94ED022FEE87EA99E921508040904088
:1006D000E1F700C000000E94FB022FEE87EA99E9D3
:1006E000215080409040E1F700C0000060E081E0D0
:0C06F0000E940A037894FFCFF894FFCF1B
:0206FC003C00C0
:00000001FF
