S00F0000666166626F78312E737265636E
S11300000C943E000C9448000C9448000C94480056
S11300100C9448000C9448000C9448000C9448003C
S11300200C9448000C9448000C9448000C9448002C
S11300300C9448000C944A000C9448000C9448001A
S11300400C9448000C9448000C9448000C9448000C
S11300500C9448000C9448000C9448000C944800FC
S11300600C9448000C9448000C9448000C944800EC
S11300700C9448000C9448000C94480011241FBEB2
S1130080CFEFD0E1DEBFCDBF0E94A3020C94DE020D
S11300900C9400000F930FB70F930091840000316C
S11300A041F00F3039F00E3031F00D3029F00C30C2
S11300B021F0000000000000000058981F93CF9327
S11300C0DF934F93C0910001D0910101409102014F
S11300D011E0CB3E1D0711F0000001C0599811E05A
S11300E0CD3E1D0711F0000001C0599A12E0CC303A
S11300F01D0719F00000000003C041E0CC27DD27F4
S113010011E0C03E1D0709F440E0409302010000E5
S11301100000F0992A9A589A413009F007C202B5B2
S11301200F930AB50F930BB50F9308B50F9305B54D
S11301300F930F7A0B6005BD002702BD01BD0FEFC1
S11301400ABD07BD0C2F0695D13009F4006808BD1F
S113015000272D980BBD03950BBD03950BBD03958F
S11301600BBD03950BBD03950BBD03950BBD03950B
S11301700BBD03950BBD03950BBD03950BBD0395FB
S11301800BBD03950BBD03950BBD03950BBD0395EB
S11301900BBD03950BBD03950BBD03950BBD0395DB
S11305100BBD03952D9A2C9A0F9105BD0F9108BD23
S11305200F910BBD0F910ABD0F9102BD2196C0938F
S11305300001D09301014F91DF91CF911F910F9151
S11305400FBF0F9118950E94D0020E94C4027894A4
S11305500E94C102FDCF2E982D9A9FEF9AB997B9A8
S113056091B982B980E088B990E09BB92B980000DA
S113057000002B9A9F5F903FC1F78F5F803F99F7F0
S1130580089580E00C94AB021AB88FEF8BB987B949
S113059018B811B812B884B98BE785B9F0980895E2
S11305A01092800089E08093810082E0809389002A
S11305B09CE79093880080936F000895F894FFCF90
S9030000FC
